:020000040800F2
:1000000000000120C5020008CB020008CF02000852
:1000100041030008450300088D03000800000000AC
:10002000000000000000000000000000D5030008F0
:10003000D903000800000000DD0300089D1100083E
:10004000F1030008F1030008F1030008F1030008C0
:10005000F1030008F1030008191800083918000816
:10006000591800087918000899180008F1030008C9
:10007000F1030008F1030008F1030008F103000890
:10008000F1030008F1030008F1030008000000007C
:10009000000000000000000000000000B918000887
:1000A000F1030008F1030008F1030008F103000860
:1000B000F1030008F1030008F1030008F103000850
:1000C000F1030008F1030008F1030008F103000840
:1000D000F10300087D0900088D09000800000000F8
:1000E000BB180008F1030008F1030008000000003D
:1000F000000000000000000000000000F103000804
:1001000000000000F1030008F1030008F1030008FB
:1001100000000000000000000000000000000000DF
:10012000F1030008F1030008F1030008F1030008DF
:10013000F1030008000000000000000000000000C3
:10014000000000000000000000000000F1030008B3
:10015000F1030008F1030008F1030008A5090008F5
:10016000F1030008F1030008000000000000000097
:10017000000000000000000000000000000000007F
:1001800000000000F1030008000000000000000073
:10019000F103000800B583B000F0BAF9384B394AD2
:1001A0001360394A1360394900E02146384B9942BF
:1001B0000BD20A684B6801F10C0488689842F4D9A4
:1001C0001168196004330432F8E72E4B1A68314B7A
:1001D0009A4200D0FEE72C4B1A682F4B9A42F9D175
:1001E000274B2E4A13602E4A13602E4B05E0002049
:1001F000106004329342FAD80B462B4A934204D241
:10020000194651F8082B5B68F4E7244B1B6813B9B7
:10021000234B1B6803B1FEE700F086F9694601A88D
:1002200000F022F9214C224BE41AA4100025AC4224
:1002300014DC204C204BE41AA4100025AC4213DC43
:100240000099019802F0C4F805461C4C1C4BE41AB6
:10025000A410002C0EDC284600F0E2F8144B53F8F2
:10026000253098470135E2E7134B53F8253098477E
:100270000135E3E7013C124B53F824309847E8E797
:10028000BABADECA00000020A8000020F40300086B
:100290000C0400087856341232547698AC000020D2
:1002A000D80100200C0400081C0400081C040008ED
:1002B0001C0400081C0400081C0400081C0400089E
:1002C0001C04000808B5FFF765FF00BEFEE71EF03E
:1002D000040F0CBFEFF30880EFF309807146414A29
:1002E00010472DE9F04182B004468846124B5E6B00
:1002F0009F6B9D6A1B6B13F0020F03D00E4BDB6AE2
:10030000002B0CDB0D4800F0B7F8CDF800803B4621
:1003100032462946204600F00BF900BEFEE74BF6B8
:10032000AB6100F07FF90028ECD0034B4FF00042A6
:10033000DA6202B0BDE8F08100ED00E0443A000866
:1003400000BEFEE71EF0040F0CBFEFF30880EFF3D2
:1003500009807146244A10472DE9F04182B00446D5
:100360008846084B5E6B9F6B9D6A074800F084F8D7
:10037000CDF800803B4632462946204600F0D8F8AA
:1003800000BEFEE700ED00E0543A00081EF0040F46
:100390000CBFEFF30880EFF309807146134A104752
:1003A0002DE9F04182B004468846084B5E6B9F6B96
:1003B0009D6A074800F060F8CDF800803B46324661
:1003C0002946204600F0B4F800BEFEE700ED00E04C
:1003D000603A000800BEFEE700BEFEE700BEFEE792
:1003E00070470000E302000859030008A103000859
:0403F00000BEFEE766
:1003F400983C000800000020AC000020983C000855
:100404000000001000000010AC000020DC010020FF
:080414000000001000000010C0
:10042000FEE7000008B503460C4A12685AB10B4AB1
:100430001068033323F003030344094A934206D8A8
:10044000064A136008BD054A06491160EFE702F04D
:100450008DFD0C2303604FF0FF30F3E7B000002068
:1004600000FC0020DC01002001230360014B0B6035
:10047000704700BF040000200FB400B583B004AB88
:1004800053F8042B01938021064802F009FE00284E
:1004900003DD0146034800F037F803B05DF804EBD4
:1004A00004B07047B80000202DE9F04385B0044641
:1004B0000F4643560BB10E461EE004252846214642
:1004C000ABBE0446384605B0BDE8F08314F9011B05
:1004D00004AA1A4402F8101C0133AB42F6D304AA52
:1004E0001344002203F8102C4FF00408E94640465C
:1004F0004946ABBE8046761B002EE3D03546102E13
:1005000028BF10250023E8E708B5FFF7CDFF08BD99
:1005100008B500F097F8024A024B9A6008BD00BF88
:100520000000000800ED00E008B500F0ABF808BDE1
:10053000F8B504460D4617461E462748FFF79CFFB0
:1005400021682648FFF798FF61682548FFF794FF68
:10055000A1682448FFF790FFE1682348FFF78CFF6C
:1005600021692248FFF788FF61692148FFF784FF6E
:10057000A1692048FFF780FFE1691F48FFF77CFF72
:100580001E48FFF779FF29461D48FFF775FF1D4CF0
:10059000E16A1D48FFF770FF216B1C48FFF76CFFF5
:1005A000E16B1B48FFF768FF15F0800F0AD115F4C7
:1005B000004F0CD11748FFF75FFF06991648FFF769
:1005C0005BFFF8BD39461548FFF756FFEFE73146A8
:1005D0001348FFF751FFEDE72839000838390008C4
:1005E0004839000858390008683900087839000887
:1005F0008839000898390008A8390008B839000877
:10060000C439000800ED00E0D4390008E4390008DE
:10061000F4390008243A00082C3A0008043A00088B
:10062000143A000883691A888A4201D00020704772
:100630000268033A012A03D802338361012070471C
:10064000002070470C4B1A6842F001021A6000212A
:1006500099601A6822F0847222F480321A60074A84
:100660005A601A6822F480221A60D960044B4FF055
:1006700000629A60704700BF0038024010300024CA
:1006800000ED00E0224B9B6803F00C03042B14D018
:10069000082B16D01BB11F4B1F4A1A6002E01D4BDE
:1006A0001D4A1A601A4B9B68C3F303131B4AD15CA3
:1006B000184A1368CB4013607047164B184A1A60EB
:1006C000F0E7134B5A685B6803F03F0312F4800FA6
:1006D00013D0134AB2FBF3F20D4B5B68C3F38813DC
:1006E00003FB02F30A4A5268C2F30142013252008C
:1006F000B3FBF2F3074A1360D4E7074AB2FBF3F205
:10070000034B5B68C3F3881303FB02F3EAE700BF04
:10071000003802400C0000200024F400703A000869
:1007200040787D01F0B585B006460D4614466F4B06
:100730009A4239D06E4B9A4253D06E4B9A426FD048
:10074000B37A002B00F08B80012B00F0A280B27AEC
:1007500033791B0343EAC233B27943EA8223F27945
:1007600043EA4223E360337A012B00F0B180002B8F
:1007700000F0A980022B00F0B08072792B78DB02A8
:1007800043EA0233AA7843EA42236A7843EA82239F
:10079000EA7843EA0223236100232360E36843F4F9
:1007A0000053E36005B0F0BD0421084600F09EFD53
:1007B000514F97E803000090ADF80410090C8DF834
:1007C0000610684601F00CF8083797E8030002901D
:1007D000ADF80C10090C8DF80E1002A801F000F80D
:1007E000AEE71121042000F081FD434F07F1100313
:1007F00093E803000090ADF80410090C8DF8061082
:10080000684600F0EDFF183797E803000290ADF856
:100810000C10090C8DF80E1002A800F0E1FF8FE714
:100820000521042000F062FD334F07F1200393E817
:1008300003000090ADF80410090C8DF8061068460E
:1008400000F0CEFF283797E803000290ADF80C10B7
:10085000090C8DF80E1002A800F0C2FF70E7306896
:1008600080002649B1FBF0F1254BB3FBF0F0642387
:1008700003FB11031B013233224AA2FB03235B0952
:1008800003F0F00202EB011203F00F031344A36024
:100890005DE7306880001949B1FBF0F1184BB3FBFC
:1008A000F0F0642303FB11031B013233154AA2FB52
:1008B00003235B0903F0F00202EB011203F00F03C4
:1008C0001344A36043E7E36843F00803E36054E79D
:1008D000E36843F00403E3604FE7E36843F0080391
:1008E000E360E36843F00403E36046E7001001407F
:1008F0000044004000140140803A000880841E003B
:1009000000C2EB0B1F85EB51036813F0800FFBD087
:100910004160036813F0400FFBD0036823F04003ED
:100920000360704770B506460D46002405E0C9B265
:100930003046FFF7E9FF0134E4B229570029F6D128
:1009400070BD036813F0200FFBD04068C0B2704741
:100950004068C0B2704731B1012908D1C36843F083
:100960002003C3607047C36823F02003C36070474F
:10097000014B1860704700BFC001002008B5024B52
:100980001B6803B1984708BDC001002008B5034BA0
:1009900000221A60024B1B68984708BD00440040C3
:1009A000B801002008B5034B00221A60024B1B68F7
:1009B000984708BD00140140BC010020014B98621B
:1009C000704700BF00000140014BD862704700BF74
:1009D00000000140014B5863704700BF0000014018
:1009E000014B586B80B2704700000140014B986387
:1009F000704700BF00000140014B986B80B2704708
:100A000000000140014BD863704700BF0000014067
:100A1000014BD86B80B2704700000140014B186455
:100A2000704700BF00000140014B186C80B2704756
:100A30000000014070B582B00446BDF81C608E48CD
:100A4000056845F080050560056825F0100505601E
:100A5000456825F010054560456825F0200545608E
:100A6000456845F040054560856845F0800585602E
:100A70008362BDF81830C362631E032B05D8DFE81C
:100A800003F0020B0E117C4B5E63631E032B19D81F
:100A9000DFE803F00B212F3D774B9E63F5E7764BA4
:100AA000DE63F2E7744B1E64EFE7734B986920F046
:100AB00001009861986920F002009861986940F0FF
:100AC00008009861631E032B45D8DFE813F02E0061
:100AD000B0002B01A501684B986920F480709861E3
:100AE000986920F400709861986940F400609861FA
:100AF000E8E7614BD86920F00100D861D86920F09F
:100B00000200D861D86940F00800D861DAE75A4B92
:100B1000D86920F48070D861D86920F40070D86159
:100B2000D86940F40060D861CCE70139072912D8B0
:100B3000DFE801F0041B29374553616F4E4B99697B
:100B400021F010019961996921F020019961996959
:100B500021F040019961013A032A00F2E281DFE8C5
:100B600012F0D701080212021C02434B996941F0AE
:100B700010019961996921F020019961996921F029
:100B800040019961E7E73C4B996921F010019961B7
:100B9000996941F020019961996921F040019961B9
:100BA000D9E7354B996941F010019961996941F094
:100BB00020019961996921F040019961CBE72E4BA1
:100BC000996921F010019961996921F020019961D9
:100BD000996941F040019961BDE7274B996941F05E
:100BE00010019961996921F020019961996941F099
:100BF00040019961AFE7204B996921F0100199619B
:100C0000996941F020019961996941F04001996128
:100C1000A1E7194B996941F010019961996941F077
:100C200020019961996941F04001996193E7013987
:100C3000072990D8DFE801F0041222303E4C5A68B0
:100C40000D4B996921F480519961996921F4005102
:100C50009961996921F4804199617CE7064B996912
:100C600041F480519961996921F400519961996920
:100C700021F4804199616EE700000140954B99692C
:100C800021F480519961996941F400519961996900
:100C900021F4804199615EE78E4B996941F480515E
:100CA0009961996941F400519961996921F48041F0
:100CB000996150E7874B996921F48051996199694D
:100CC00021F400519961996941F48041996142E7A9
:100CD000804B996941F480519961996921F40051DF
:100CE0009961996941F48041996134E7794B996937
:100CF00021F480519961996941F400519961996990
:100D000041F48041996126E7724B996941F4805121
:100D10009961996941F400519961996941F480415F
:100D2000996118E7013907293FF615AFDFE801F0AF
:100D30000412202E3C4A5866664BD96921F01001F6
:100D4000D961D96921F02001D961D96921F0400127
:100D5000D96100E75F4BD96941F01001D961D969C8
:100D600021F02001D961D96921F04001D961F2E671
:100D7000584BD96921F01001D961D96941F020019E
:100D8000D961D96921F04001D961E4E6514BD969B3
:100D900041F01001D961D96941F02001D961D969C7
:100DA00021F04001D961D6E64A4BD96921F0100102
:100DB000D961D96921F02001D961D96941F0400197
:100DC000D961C8E6434BD96941F01001D961D969AD
:100DD00021F02001D961D96941F04001D961BAE619
:100DE0003C4BD96921F01001D961D96941F020014A
:100DF000D961D96941F04001D961ACE6354BD96977
:100E000041F01001D961D96941F02001D961D96956
:100E100041F04001D9619EE6013907293FF69BAEBA
:100E2000DFE801F00412202E3C4A5A68294BD969A8
:100E300021F48051D961D96921F40051D961D9696E
:100E400021F48041D96186E6224BD96941F4805171
:100E5000D961D96921F40051D961D96921F480415E
:100E6000D96178E61B4BD96921F48051D961D969E0
:100E700041F40051D961D96921F48041D9616AE610
:100E8000144BD96941F48051D961D96941F40051B9
:100E9000D961D96921F48041D9615CE60D4BD969EA
:100EA00021F48051D961D96921F40051D961D969FE
:100EB00041F48041D9614EE6064BD96941F4805135
:100EC000D961D96921F40051D961D96941F48041CE
:100ED000D96140E600000140614BD96921F480519D
:100EE000D961D96941F40051D961D96941F480418E
:100EF000D96130E65A4BD96941F48051D961D96939
:100F000041F40051D961D96941F48041D96122E6A7
:100F1000534B1A6822F020021A601A6822F040022D
:100F20001A604F4A536943F001035361012C3ED0CC
:100F30004B4A136A23F001031362022C4DD0484A36
:100F4000136A23F010031362032C5CD0444A136A23
:100F500023F480731362042C6BD0414A136A23F488
:100F6000805313623E4A536C43F40043536402B00F
:100F700070BD3B4B1A6842F020021A601A6822F0DA
:100F800040021A60CDE7364B1A6822F020021A6040
:100F90001A6842F040021A60C3E7314B1A6842F007
:100FA00020021A601A6842F040021A60B9E713463C
:100FB000126A22F002021A621A6A42F001021A62EE
:100FC000284B93E803000090ADF80410090C8DF84D
:100FD0000610684600F004FCAFE7214B1A6A22F0C5
:100FE00020021A621A6A42F010021A621E4B93E83B
:100FF00003000090ADF80410090C8DF80610684647
:1010000000F0EEFBA0E7164B1A6A22F400721A6297
:101010001A6A42F480721A62144B93E8030000903B
:10102000ADF80410090C8DF80610684600F0D8FBE6
:1010300091E70B4B1A6A22F400521A621A6A42F4C0
:1010400080521A620A4B93E803000090ADF8041036
:10105000090C8DF80610684600F0C2FB82E700BF5D
:1010600000000140B03A0008B83A0008C03A000851
:10107000C83A000800B585B02D4B93E803000290F4
:10108000ADF80C10090C8DF80E10083393E803002E
:101090000090ADF80410090C8DF8061002A800F0BD
:1010A0009FFB684600F09CFB224B9A6942F00102CC
:1010B0009A619A6922F002029A611A6A22F0020287
:1010C0001A621A6A22F008021A629A6922F480727D
:1010D0009A619A6942F400729A611A6A42F0200297
:1010E0001A621A6A42F080021A629A6842F010028A
:1010F0009A609A6822F020029A609A6842F0400250
:101100009A609A6822F001029A609A6822F00202BC
:101110009A609A6842F004029A601A6A42F00102E8
:101120001A621A6A42F010021A6205B05DF804FBF6
:10113000B03A000800000140024A136843F001037E
:101140001360704700000140054B00229A601A6846
:1011500022F004021A601A6822F002021A60704734
:1011600010E000E00138B0F1807F14D20A4B5860E3
:1011700000229A601A6842F001021A60064B1B684E
:1011800013F4803FFAD0044B1A6822F001021A606F
:1011900000225A609A60704710E000E000B583B00A
:1011A00000238DF80730104B1B6803B198470F4B95
:1011B0001B78012B08D00E4B1B68C3F300438DF83E
:1011C000073003B05DF804FB094B1A6822F00202F5
:1011D0001A601A6822F001021A6000225A609A60AE
:1011E000024B02221A70E6E73C0100203801002081
:1011F00010E000E03C4B1A6822F080621A601A6826
:1012000022F080721A601A6822F400221A601A68AA
:1012100022F480221A609A6822F001029A609A6889
:1012200022F002029A609A6822F004029A609A6898
:1012300022F008029A609A6822F080429A609A68C6
:1012400022F000429A609A6822F000629A609A68DE
:1012500022F080529A609A6822F000529A609A684E
:1012600022F400129A609A6842F480029A609A68A6
:1012700022F080729A609A6822F000729A609A68EE
:1012800022F080629A609A6822F010029A609A684E
:1012900022F020029A609A6822F040029A609A68CE
:1012A00042F080029A609A6822F480629A609A689A
:1012B00022F400629A609A6822F480529A609A68D6
:1012C00022F400529A609A6822F480429A609A68E6
:1012D00022F400429A601A6822F480321A601A6876
:1012E00042F001021A6070470038024001380428B9
:1012F0002BD8DFE800F0030B131B23001348036B0C
:10130000012202FA01F11943016370470F48436B50
:10131000012202FA01F11943416370470B48036C43
:10132000012202FA01F11943016470470748436C36
:10133000012202FA01F11943416470470348036D29
:10134000012202FA01F11943016570470038024099
:1013500000F01F02400901239340024A42F8203066
:10136000704700BF00E100E000F01F0240090123C8
:1013700093402030014A42F82030704700E100E0FD
:1013800082B0002201924FF4F033019301990C4B8B
:10139000D9614FF46041D9610199D961DB69019349
:1013A0000092084B0093009A074BDA6140F61C024A
:1013B000DA61009ADA61DB69009302B0704700BF1E
:1013C000000002401C0801000004024010B4012883
:1013D00012D018B102281DD010BC7047144B1868E9
:1013E000490003248C4020EA04001860186802FABF
:1013F00001F101431960EFE70E4B1868490003241F
:101400008C4020EA04001860186802FA01F10143D8
:101410001960E1E7084B1868490003248C4020EA72
:1014200004001860186802FA01F101431960D3E75B
:10143000000002400004024000080240012A02D0DD
:10144000022A1ED0704701280BD010B1022810D0FC
:1014500070471C484368012202FA01F119434160B8
:10146000704719484368012202FA01F119434160AB
:10147000704716484368012202FA01F1194341609E
:10148000704701280CD010B1022812D070470D48C7
:101490004368012202FA01F123EA01014160704729
:1014A00009484368012202FA01F123EA010141607F
:1014B000704706484368012202FA01F123EA01015C
:1014C00041607047000002400004024000080240F2
:1014D00010B4012812D018B102281DD010BC7047DA
:1014E000144B9868490003248C4020EA040098605B
:1014F000986802FA01F101439960EFE70E4B986892
:10150000490003248C4020EA04009860986802FA9D
:1015100001F101439960E1E7084B98684900032411
:101520008C4020EA04009860986802FA01F10143B7
:101530009960D3E700000240000402400008024026
:1015400010B4012812D018B102281DD010BC704769
:10155000144BD868490003248C4020EA0400D8606A
:10156000D86802FA01F10143D960EFE70E4BD86861
:10157000490003248C4020EA0400D860D86802FAAD
:1015800001F10143D960E1E7084BD8684900032421
:101590008C4020EA0400D860D86802FA01F10143C7
:1015A000D960D3E700000240000402400008024076
:1015B000012A02D0022A1ED0704701280BD010B198
:1015C000022810D070471C484369012202FA01F139
:1015D00019434161704719484369012202FA01F138
:1015E00019434161704716484369012202FA01F12B
:1015F00019434161704701280CD010B1022812D064
:1016000070470D484369012202FA01F123EA010102
:101610004161704709484369012202FA01F123EA56
:1016200001014161704706484369012202FA01F154
:1016300023EA0101416170470000024000040240BA
:1016400000080240012815D010B1022824D07047AC
:10165000012A02D0022A06D07047012303FA01F1C1
:10166000164B996170471031012303FA01F1134BB6
:1016700099617047012A02D0022A06D070470123DF
:1016800003FA01F10E4B996170471031012303FAFF
:1016900001F10B4B99617047012A02D0022A06D052
:1016A0007047012303FA01F1064B9961704710312D
:1016B000012303FA01F1034B9961704700000240D6
:1016C000000402400008024030B401282ED018B1B6
:1016D000022855D030BC70470F29FBD8DFE801F055
:1016E000080808080808080816161616161616160A
:1016F000384C236A89000F20884023EA00032362C4
:10170000236A02FA01F119432162E3E7314C636A6B
:10171000A1F1080080000F21814023EA01036362E8
:10172000636A02FA00F119436162D3E70F29D1D845
:10173000DFE801F008080808080808081616161659
:1017400016161616244C236A89000F20884023EAB7
:1017500000032362236A02FA01F119432162B9E707
:101760001D48446AA1F108039B000F21994024EA17
:1017700001014162416A02FA03F30B434362A9E7A4
:101780000F29A7D8DFE801F00808080808080808AA
:101790001616161616161616104C236A8D000F21F3
:1017A000A94023EA01032362236A02FA05F11943DF
:1017B00021628FE7094C636A083989000F2088404D
:1017C00023EA00036362636A02FA01F1194361626A
:1017D00080E700BF00000240000402400008024011
:1017E00010B50446827841780078FFF7EFFDE27883
:1017F00061782078FFF722FE227961782078FFF760
:1018000067FE627961782078FFF79AFEA2796178A5
:101810002078FFF759FF10BD08B5054B1B6803B1D1
:101820009847044A536943F00103536108BD00BF60
:1018300040010020003C014008B5054B5B6803B146
:101840009847044A536943F00203536108BD00BF3F
:1018500040010020003C014008B5054B9B6803B1E6
:101860009847044A536943F00403536108BD00BF1D
:1018700040010020003C014008B5054BDB6803B186
:101880009847044A536943F00803536108BD00BFF9
:1018900040010020003C014008B5054B1B6903B125
:1018A0009847044A536943F01003536108BD00BFD1
:1018B00040010020003C01407047704700B583B0F4
:1018C0000023CDF8033003788DF8003043788DF88D
:1018D000013001238DF8023002238DF80330684671
:1018E000FFF77EFF0720FFF769F842F21070FFF75D
:1018F0006BF8FFF7BFFB03B05DF804FB10B50446BF
:10190000022241780078FFF79DFE0220FFF72AFCB3
:10191000012261782078FFF795FE0A20FFF722FC6C
:10192000022261782078FFF78DFE10BD00000000D4
:1019300010B5FFF761F801F04BFA0446FFF750F8D5
:10194000204600F0D5FE04A3D3E9002300F028FFD1
:1019500001F038F910BD00BFA835CD3B4ED1913F05
:1019600010B50446012241780078FFF721FE0222DB
:10197000A1782078FFF71CFE10BD10B504460222A6
:1019800041780078FFF714FE0122A1782078FFF754
:101990000FFE10BD10B50446022241780078FFF713
:1019A00007FE0222A1782078FFF702FE10BD00009A
:1019B00070B584B005460E46154B1B8804AC24F860
:1019C000043D00790023019342F210730093072332
:1019D00002221946FFF72EF82046FFF76FFF2B79FA
:1019E000013B032B06D8DFE803F002070B0F30465C
:1019F000FEF7F0FF04B070BD3046FEF7F7FFF9E7E1
:101A00003046FEF7FFFFF5E73046FFF707F8F1E74E
:101A1000D03A000810B584B004460020CDF80B0081
:101A200021788DF8081063788DF8093001228DF83F
:101A30000A2002238DF80B30CDF803008DF800103A
:101A4000A1788DF801108DF802208DF8033002A8DE
:101A5000FFF7C6FE6846FFF7C3FEE378012B05D00B
:101A6000022B0CD02046FFF795FF02E02046FFF73F
:101A700077FF21892046FFF79BFF04B010BD204669
:101A8000FFF77BFFF5E708B50379013B032B0FD880
:101A9000DFE803F00205080BFEF7A2FF08BDFEF722
:101AA000ABFFFBE7FEF7B4FFF8E7FEF7BDFFF5E796
:101AB0000020F3E708B50348FFF7ACFF0248FFF743
:101AC000A9FF08BD100000201C00002010B504462E
:101AD00001460448FFF76CFF21460348FFF768FF03
:101AE00010BD00BF100000201C00002008B50348F6
:101AF000FFF736FF0248FFF733FF08BD1000002054
:101B00001C00002008B50348FFF737FF0248FFF725
:101B100034FF08BD100000201C00002008B5034859
:101B2000FFF71EFF0248FFF735FF08BD1000002039
:101B30001C00002008B50348FFF72CFF0248FFF700
:101B40000FFF08BD100000201C00002008B503484E
:101B5000FFF720FF0248FFF71DFF08BD100000201F
:101B60001C00002008B50248FFF78DFF08BD00BF2C
:101B70001000002008B5034B1A6803490348FEF71C
:101B8000D1FD08BD340000209C0100202800002069
:101B900008B5024B1868FEF7D4FE08BD34000020DB
:101BA00008B5FEF7E5FE08BD08B50146024B18680A
:101BB000FEF7B8FE08BD00BF3400002000B583B0BA
:101BC00000238DF807300548FEF7C2FE8DF80700A8
:101BD0009DF8070003B05DF804FB00BF0010014052
:101BE00008B50121034B1868FEF7B5FE2520FFF765
:101BF000AFFB08BD3400002008B50021034B186876
:101C0000FEF7A9FE2520FFF7AFFB08BD340000203A
:101C100000B583B00023CDF8033003788DF8003091
:101C200043788DF8013001238DF8023002238DF8BE
:101C300003306846FFF7D4FD03B05DF804FB08B538
:101C4000012241780078FFF7B3FC08BD08B50222F5
:101C500041780078FFF7ACFC08BD000038B5784843
:101C6000FFF7A2FF08E0FFF741FFFFF77BFF00F05F
:101C70003FF9652C00F0E380FFF78AFF44B22B3870
:101C80004828F6D801A353F820F000BFDB1D000858
:101C9000731C0008031E0008731C0008731C000856
:101CA000731C0008731C0008731C0008731C0008D8
:101CB000731C0008731C0008731C0008731C0008C8
:101CC000731C0008731C0008731C0008731C0008B8
:101CD000731C0008731C0008731C0008731C0008A8
:101CE000731C0008731C0008731C0008731C000898
:101CF000731C0008731C0008731C0008731C000888
:101D0000731C0008731C0008731C0008731C000877
:101D1000731C0008731C0008731C0008731C000867
:101D2000731C0008731C0008731C0008731C000857
:101D3000731C0008731C0008731C0008731C000847
:101D4000731C0008731C0008731C0008731C000837
:101D5000731C0008731C0008731C0008731C000827
:101D6000731C0008731C0008B11D0008731C0008D8
:101D7000731C00082D1E0008671C0008731C000857
:101D8000731C0008731C0008731C0008731C0008F7
:101D9000CD1D0008731C0008731C0008731C00088C
:101DA000731C0008731C0008BF1D0008211E0008DA
:101DB000FFF7A8FEFFF7D6FE00F09AF859E7FFF705
:101DC000ADFEFFF7CFFE00F093F852E7FFF7B2FE4B
:101DD000FFF7C8FE00F08CF84BE7FFF7C3FE42F2B6
:101DE0000F73984204D942F2107000F081F840E776
:101DF00000F57A75A8B2FFF769FE284600F078F87A
:101E000037E7FFF7AFFE10B900F072F831E7A0F541
:101E10007A75A8B2FFF75AFE284600F069F828E75D
:101E2000FFF794FE0748FFF7BFFE22E7FFF78EFE9D
:101E30000448FFF7B9FE0448FFF7B6FE19E738BDBE
:101E4000D43A0008EC3A0008F43A000838B52048C3
:101E5000FFF7AAFE09E0FFF779FE1E48FFF7A4FE90
:101E60001D48FFF7A1FE652C31D0FFF73FFEFFF7BD
:101E700079FE00F03DF8FFF78BFE44B22D2817D015
:101E80006528E8D02B28EED1FFF76CFE42F20F73E5
:101E9000984204D942F2107000F02AF8E3E700F506
:101EA0007A75A8B2FFF712FE284600F021F8DAE7AB
:101EB000FFF758FE10B900F01BF8D4E7A0F57A75CB
:101EC000A8B2FFF703FE284600F012F8CBE738BDB2
:101ED0000C3B0008EC3A00081C3B000808B5FFF773
:101EE00049FE0248FFF760FE08BD00BFC43B000882
:101EF00000B587B045F22A330393002304938DF88D
:101F000014300A2201A901F04FF801A903A801F039
:101F10004DF8054903A801F049F803A8FFF744FE6E
:101F200007B05DF804FB00BFE03B000808B52B4894
:101F3000FFF73AFE01E0FFF791FEFFF75DFE28484C
:101F4000FFF732FE2748FFF72FFE2748FFF72CFE4A
:101F50002648FFF729FE2648FFF726FE2548FFF70B
:101F600023FEFFF715FE4138132834D801A353F898
:101F700020F000BFCB1F0008D71F0008D71F0008A4
:101F8000D71F0008D71F0008D11F0008D71F00085F
:101F9000D71F0008D71F0008D71F0008D71F000849
:101FA000D71F0008D71F0008C51F0008D71F00084B
:101FB000D71F0008D71F0008D71F0008D71F000829
:101FC000371F0008FFF742FFB7E700F06DF9B4E7ED
:101FD00000F020F8B1E7FFF741FEAEE72C3B000828
:101FE0004C3B00086C3B0008843B0008943B000815
:101FF000A43B0008B43B000808B5FFF7DFFD40B282
:10200000024B1870024B01221A7008BDA10100207A
:10201000A001002010B50023924A1370924A137059
:102020009248FFF7F5FDFFF7DBFD9148FFF7B8FD9C
:102030009048FFF7B9FD10E08C48FFF700FE8E488E
:10204000FFF7B2FD884B1B78DBB2012B1AD0854B12
:102050001B785BB2652B00F004818848FFF74EFCCB
:10206000FFF766FC0446864900F058FF0028E3D1DC
:102070008449204600F066FF0028E3D07B48FFF744
:10208000E5FDDFE7784B00221A70764B1B785BB2D8
:102090002B3B482BDBD801A252F823F01D2200086D
:1020A0004F200008452200084F2000084F2000085C
:1020B0004F2000084F2000084F2000084F20000844
:1020C0004F2000084F2000084F2000084F20000834
:1020D0004F2000084F2000084F2000084F20000824
:1020E0004F2000084F2000084F2000084F20000814
:1020F0004F2000084F2000084F2000084F20000804
:102100004F2000084F2000084F2000084F200008F3
:102110004F2000084F2000084F2000084F200008E3
:102120004F2000084F2000084F2000084F200008D3
:102130004F2000084F2000084F2000084F200008C3
:102140004F2000084F2000084F2000084F200008B3
:102150004F2000084F2000084F2000084F200008A3
:102160004F2000084F2000084F2000084F20000893
:102170004F2000084F200008CF2100084F20000802
:102180004F20000805220008C12100084F20000848
:102190004F2000084F2000084F2000084F20000863
:1021A000EB2100084F2000084F2000084F200008B6
:1021B0004F2000084F200008DD210008F921000809
:1021C000FFF794FCFFF7CEFCFFF792FE3FE7FFF727
:1021D00099FCFFF7C7FCFFF78BFE38E7FFF79EFC83
:1021E000FFF7C0FCFFF784FE31E7FFF7A3FCFFF722
:1021F000B9FCFFF77DFE2AE7FFF7A8FC2248FFF7AE
:10220000D3FC24E71948FFF721FDFFF79FFC1E4888
:10221000FFF7CAFC0020FFF7C3FC18E7FFF7A2FC9A
:1022200042F20F73984204D942F21070FFF760FE39
:102230000DE700F57A74A0B2FFF748FC2046FFF7DF
:1022400057FE04E7FFF78EFC10B9FFF751FEFEE6DC
:10225000A0F57A74A0B2FFF739FC2046FFF748FEDC
:10226000F5E610BDA1010020A001002038000020EB
:10227000F91F0008E43B0008F43B00083C00002084
:102280000000A0420000A642EC3A000808B5FFF7A3
:1022900095FC40B2024B1870024B01221A7008BD27
:1022A000A2010020A301002010B500233D4A1370B5
:1022B0003D4A13703D48FFF777FCFFF791FC3C481F
:1022C000FFF76EFC0EE0FFF741FC3A48FFF76CFCAD
:1022D000354B1B78DBB2012B20D0324B1B785BB225
:1022E000652B5ED03448FFF709FBFFF721FB04465E
:1022F000324B1860324900F011FE0028E3D1314919
:10230000204600F01FFE0028E2D0FFF7EFFBFFF7AA
:1023100029FC2D4B1860FFF7EBFDD9E7224B00227B
:102320001A70204B1B785BB22D2B27D0652B0ED05B
:102330002B2BD2D1FFF716FC42F20F73984212D921
:1023400042F21070204B1860FFF7D2FDC5E7FFF78F
:10235000FDFB1848FFF728FC1C48FFF725FC002070
:10236000FFF71EFCB9E700F57A70174C206080B2C9
:10237000FFF7ACFB2068FFF7BBFDAEE7FFF7F2FB12
:1023800020B9114B1860FFF7B3FDA6E7A0F57A70EE
:102390000D4C206080B2FFF799FB2068FFF7A8FD85
:1023A0009BE710BDA2010020A30100201C3C0008F7
:1023B0008D220008EC3A000840000020A401002013
:1023C0000000484200005442A80100202C3C0008B4
:1023D00000B583B0134B1B8802AC24F8043DFEF714
:1023E00009FF00210120FEF781FF01210846FEF7C9
:1023F0007DFF00210420FEF779FFFEF7C1FFFEF705
:10240000A3FEFFF757FB41F28830FFF75FFB204642
:10241000FFF754FAFEF790FEFFF760FDFFF786FD29
:10242000FCE700BF3C3C000881F0004102E000BF37
:1024300083F0004330B54FEA41044FEA430594EA84
:10244000050F08BF90EA020F1FBF54EA000C55EABF
:10245000020C7FEA645C7FEA655C00F0E2804FEA90
:102460005454D4EB5555B8BF6D420CDD2C4480EA72
:10247000020281EA030382EA000083EA010180EAA2
:10248000020281EA0303362D88BF30BD11F0004FF0
:102490004FEA01314FF4801C4CEA113102D0404226
:1024A00061EB410113F0004F4FEA03334CEA133361
:1024B00002D0524263EB430394EA050F00F0A78079
:1024C000A4F10104D5F1200E0DDB02FA0EFC22FA74
:1024D00005F2801841F1000103FA0EF2801843FA68
:1024E00005F359410EE0A5F120050EF1200E012A59
:1024F00003FA0EFC28BF4CF0020C43FA05F3C01897
:1025000051EBE37101F0004507D54FF0000EDCF10F
:10251000000C7EEB00006EEB0101B1F5801F1BD3B8
:10252000B1F5001F0CD349085FEA30004FEA3C0CBC
:1025300004F101044FEA445212F5800F80F09A80B2
:10254000BCF1004F08BF5FEA500C50F1000041EBB6
:10255000045141EA050130BD5FEA4C0C404141EBBA
:10256000010111F4801FA4F10104E9D191F0000FE1
:1025700004BF01460020B1FA81F308BF2033A3F164
:102580000B03B3F120020CDA0C3208DD02F1140C5B
:10259000C2F10C0201FA0CF021FA02F10CE002F196
:1025A0001402D8BFC2F1200C01FA02F120FA0CFC8F
:1025B000DCBF41EA0C019040E41AA2BF01EB0451D8
:1025C000294330BD6FEA04041F3C1CDA0C340EDCD6
:1025D00004F11404C4F1200220FA04F001FA02F319
:1025E00040EA030021FA04F345EA030130BDC4F1D7
:1025F0000C04C4F1200220FA02F001FA04F340EACC
:102600000300294630BD21FA04F0294630BD94F07C
:10261000000F83F4801306BF81F480110134013D63
:102620004EE77FEA645C18BF7FEA655C29D094EAD4
:10263000050F08BF90EA020F05D054EA000C04BF52
:102640001946104630BD91EA030F1EBF002100203D
:1026500030BD5FEA545C05D14000494128BF41F0DC
:10266000004130BD14F580043CBF01F5801130BD40
:1026700001F0004545F0FE4141F470014FF00000CB
:1026800030BD7FEA645C1ABF194610467FEA655C7C
:102690001CBF0B46024650EA013406BF52EA03351E
:1026A00091EA030F41F4002130BD00BF90F0000F0C
:1026B00004BF0021704730B54FF4806404F1320448
:1026C0004FF000054FF0000150E700BF90F0000F01
:1026D00004BF0021704730B54FF4806404F1320428
:1026E00010F0004548BF40424FF000013EE700BFF8
:1026F00042004FEAE2014FEA31014FEA02701FBF88
:1027000012F07F4393F07F4F81F06051704732F0B9
:102710007F4208BF704793F07F4F04BF41F4002110
:10272000704730B54FF4607401F0004521F000416E
:102730001CE700BF50EA010208BF704730B54FF0F8
:1027400000050AE050EA010208BF704730B511F0F9
:10275000004502D5404261EB41014FF4806404F131
:1027600032045FEA915C3FF4D8AE4FF003025FEAB7
:10277000DC0C18BF03325FEADC0C18BF033202EB3B
:10278000DC02C2F1200300FA03FC20FA02F001FA95
:1027900003FE40EA0E0021FA02F11444BDE600BF38
:1027A00070B54FF0FF0C4CF4E06C1CEA11541DBFE7
:1027B0001CEA135594EA0C0F95EA0C0F00F0DEF8B2
:1027C0002C4481EA030621EA4C5123EA4C5350EA97
:1027D000013518BF52EA033541F4801143F48013E8
:1027E00038D0A0FB02CE4FF00005E1FB02E506F079
:1027F0000042E0FB03E54FF00006E1FB03569CF0CE
:10280000000F18BF4EF0010EA4F1FF04B6F5007FD3
:1028100064F5407404D25FEA4E0E6D4146EB060645
:1028200042EAC62141EA55514FEAC52040EA5E50CE
:102830004FEACE2EB4F1FD0C88BFBCF5E06F1ED878
:10284000BEF1004F08BF5FEA500E50F1000041EBAF
:10285000045170BD06F0004646EA010140EA02005C
:1028600081EA0301B4EB5C04C2BFD4EB0C0541EA7E
:10287000045170BD41F480114FF0000E013C00F393
:10288000AB8014F1360FDEBF002001F0004170BDB7
:10289000C4F10004203C35DA0C341BDC04F11404D0
:1028A000C4F1200500FA05F320FA04F001FA05F25C
:1028B00040EA020001F0004221F0004110EBD37029
:1028C00021FA04F642EB06015EEA430E08BF20EA55
:1028D000D37070BDC4F10C04C4F1200500FA04F3F8
:1028E00020FA05F001FA04F240EA020001F000418A
:1028F00010EBD37041F100015EEA430E08BF20EAFD
:10290000D37070BDC4F1200500FA05F24EEA020E44
:1029100020FA04F301FA05F243EA020321FA04F073
:1029200001F0004121FA04F220EA020000EBD3702A
:102930005EEA430E08BF20EAD37070BD94F0000F2A
:102940000FD101F00046400041EB010111F4801F5E
:1029500008BF013CF7D041EA060195F0000F18BF0F
:10296000704703F00046520043EB030313F4801F4B
:1029700008BF013DF7D043EA0603704794EA0C0F05
:102980000CEA135518BF95EA0C0F0CD050EA41061B
:1029900018BF52EA4306D1D181EA030101F0004198
:1029A0004FF0000070BD50EA410606BF10461946C0
:1029B00052EA430619D094EA0C0F02D150EA0136CC
:1029C00013D195EA0C0F05D152EA03361CBF10460D
:1029D00019460AD181EA030101F0004141F0FE41AC
:1029E00041F470014FF0000070BD41F0FE4141F430
:1029F000780170BD70B54FF0FF0C4CF4E06C1CEA30
:102A000011541DBF1CEA135594EA0C0F95EA0C0FE4
:102A100000F0A7F8A4EB050481EA030E52EA03359F
:102A20004FEA013100F088804FEA03334FF08055C0
:102A300045EA131343EA12634FEA022245EA1115ED
:102A400045EA10654FEA00260EF000419D4208BF9E
:102A5000964244F1FD0404F5407402D25B084FEA4B
:102A60003202B61A65EB03055B084FEA32024FF4F7
:102A700080104FF4002CB6EB020E75EB030E22BF54
:102A8000B61A754640EA0C005B084FEA3202B6EB14
:102A9000020E75EB030E22BFB61A754640EA5C00C3
:102AA0005B084FEA3202B6EB020E75EB030E22BF53
:102AB000B61A754640EA9C005B084FEA3202B6EB54
:102AC000020E75EB030E22BFB61A754640EADC0013
:102AD00055EA060E18D04FEA051545EA16754FEA75
:102AE00006164FEAC30343EA52734FEAC2025FEA93
:102AF0001C1CC0D111F4801F0BD141EA00014FF022
:102B000000004FF0004CB6E711F4801F04BF0143F2
:102B10000020B4F1FD0C88BFBCF5E06F3FF6AFAE0E
:102B2000B5EB030C04BFB6EB020C5FEA500C50F19E
:102B3000000041EB045170BD0EF0004E4EEA113121
:102B400014EB5C04C2BFD4EB0C0541EA045170BD28
:102B500041F480114FF0000E013C90E645EA060E6C
:102B60008DE60CEA135594EA0C0F08BF95EA0C0F9A
:102B70003FF43BAF94EA0C0F0AD150EA01347FF4E2
:102B800034AF95EA0C0F7FF425AF104619462CE7B9
:102B900095EA0C0F06D152EA03353FF4FDAE10461C
:102BA000194622E750EA410618BF52EA43067FF46D
:102BB000C5AE50EA41047FF40DAF52EA43057FF4FD
:102BC000EBAE12E74FEA4102B2F1E04324BFB3F5A6
:102BD000001CDCF1FE5C0DD901F0004C4FEAC00294
:102BE0004CEA5070B2F1004F40EB830008BF20F078
:102BF0000100704711F0804F21D113F13872BCBF32
:102C000001F00040704741F480114FEA5252C2F186
:102C10001802C2F1200C10FA0CF320FA02F018BFCF
:102C200040F001004FEAC1234FEAD32303FA0CFC22
:102C300040EA0C0023FA02F34FEA4303CCE77FEAB1
:102C4000625307D150EA01331EBF4FF0FE4040F4FB
:102C50004000704701F0004040F0FE4040F40000AA
:102C6000704700BF80F0004002E000BF81F00041EB
:102C700042001FBF5FEA410392EA030F7FEA226C22
:102C80007FEA236C6AD04FEA1262D2EB1363C1BFB2
:102C9000D218414048404140B8BF5B42192B88BF21
:102CA000704710F0004F40F4000020F07F4018BF44
:102CB000404211F0004F41F4000121F07F4118BF64
:102CC000494292EA030F3FD0A2F1010241FA03FC0C
:102CD00010EB0C00C3F1200301FA03F100F00043F4
:102CE00002D5494260EB4000B0F5000F13D3B0F1BC
:102CF000807F06D340084FEA310102F10102FE2A2B
:102D000051D2B1F1004F40EBC25008BF20F001009A
:102D100040EA03007047490040EB000010F4000F48
:102D2000A2F10102EDD1B0FA80FCACF1080CB2EBDB
:102D30000C0200FA0CF0AABF00EBC250524218433A
:102D4000BCBFD0401843704792F0000F81F40001DF
:102D500006BF80F400000132013BB5E74FEA4103B2
:102D60007FEA226C18BF7FEA236C21D092EA030F1E
:102D700004D092F0000F08BF0846704790EA010F98
:102D80001CBF0020704712F07F4F04D1400028BFC5
:102D900040F00040704712F100723CBF00F50000A7
:102DA000704700F0004343F0FE4040F400007047DD
:102DB0007FEA226216BF08467FEA23630146420289
:102DC00006BF5FEA412390EA010F40F4800070479C
:102DD0004FF0000304E000BF10F0004348BF404242
:102DE0005FEA000C08BF704743F0964301464FF07E
:102DF00000001CE050EA010208BF70474FF00003DA
:102E00000AE000BF50EA010208BF704711F000431A
:102E100002D5404261EB41015FEA010C02BF8446EA
:102E20000146002043F0B64308BFA3F18053A3F549
:102E30000003BCFA8CF2083AA3EBC25310DB01FA90
:102E400002FC634400FA02FCC2F12002BCF1004F14
:102E500020FA02F243EB020008BF20F001007047A5
:102E600002F1200201FA02FCC2F1200250EA4C00F9
:102E700021FA02F243EB020008BF20EADC7070473F
:102E80004FF0FF3C06E000BF4FF0010C02E000BF36
:102E90004FF0010C4DF804CD4FEA40024FEA4103D8
:102EA0007FEA226C18BF7FEA236C11D001B052EA8E
:102EB000530C18BF90EA010F58BFB2EB030088BF54
:102EC000C81738BF6FEAE17018BF40F001007047C3
:102ED0007FEA226C02D15FEA402C05D17FEA236CA5
:102EE000E4D15FEA412CE1D05DF8040B704700BFEC
:102EF000844608466146FFE70FB5FFF7C9FF002883
:102F000048BF10F1000F0FBD4DF808EDFFF7F4FFBB
:102F10000CBF012000205DF808FB00BF4DF808ED54
:102F2000FFF7EAFF34BF012000205DF808FB00BF77
:102F30004DF808EDFFF7E0FF94BF012000205DF899
:102F400008FB00BF4DF808EDFFF7D2FF94BF01204A
:102F500000205DF808FB00BF4DF808EDFFF7C8FF43
:102F600034BF012000205DF808FB00BF014B18684A
:102F7000704700BF44000020931E222B10B50C4662
:102F800004D900230B701C46204610BD0A2A09D123
:102F9000002807DA2D230B7040420121214400F064
:102FA00015F8F1E70021F9E7FFF7E6BF10B5034692
:102FB0001A785C1C3AB9013B11F8012B03F8012F78
:102FC000002AF9D110BD2346F2E70000F0B51D4BF1
:102FD0008BB005460C466E4603F1200C1868596804
:102FE000374603C7083363453E46F7D118681B7957
:102FF0003B71931E222B38604FF0000304D92370DD
:103000001C4620460BB0F0BD661EB5FBF2F00AAFC1
:1030100002FB10553D44591C15F8285C06F8015F69
:10302000054668B9605423442246191B101B81428F
:10303000E7DD1178187802F8010B03F80119F4E7BD
:103040000B46E2E73E3C000830B5141E05469BB037
:10305000184605DA8B232B604FF0FF301BB030BDD4
:103060004FF40273ADF80C3014BF04F1FF33234664
:10307000029305934FF6FF7300910491ADF80E3063
:1030800002461E9B6946284600F072F8431CBCBFEE
:103090008B232B60002CE1D0009B00221A70DDE70F
:1030A00007B5009313460A46014603480068FFF738
:1030B000CBFF03B05DF804FB440000202DE9F0478E
:1030C0008E689E4282460C469046994637D88A8939
:1030D00012F4906F31D0256809696F1A656902236F
:1030E00005EB450595FBF3F509F101033B449D42D2
:1030F00038BF1D46530530D5294600F07BFB0646F8
:1031000050B90C23CAF80030A38943F04003A381CF
:103110004FF0FF30BDE8F0873A46216900F0F8FA39
:10312000A38923F4906343F08003A3812661656142
:103130003E44ED1B2660A5604E464E4500D94E46E6
:1031400032464146206800F0EEFAA3689B1BA3605C
:1031500023681E4426600020DCE72A4600F0A4FB1A
:1031600006460028E2D12169504600F0F5FAC8E78A
:103170002DE9F04F9DB0804603938B891D060C46C8
:1031800016460FD50B696BB9402100F033FB206068
:10319000206128B90C23C8F800304FF0FF30C7E099
:1031A000402363610023099320238DF829303023C5
:1031B0008DF82A304FF0010B37463D4615F8013B9C
:1031C0000BB1252B3ED1B7EB060A0BD05346324646
:1031D00021464046FFF772FF013000F0A480099BB2
:1031E000534409933B78002B00F09D8000234FF05F
:1031F000FF32CDE90523049307938DF853301A93DA
:103200002F46052217F8011B4F4800F031FA049BA6
:10321000D0B9D90644BF20228DF853201A0744BFE5
:103220002B228DF853202A782A2A15D0079A2F4668
:1032300000200A25394611F8013B303B092B4DD9B6
:10324000B8B10FE02F46B8E73F4A801A0BFA00F0FA
:10325000184304903D46D3E7039A111D1268039169
:10326000002A01DB079204E0524243F00203079276
:1032700004933B782E2B0CD17B782A2B33D1039BE4
:103280001A1D1B680392002BB8BF4FF0FF330237A3
:1032900005932E4D39780322284600F0E9F938B11C
:1032A0004023401B03FA00F0049B034301370493BF
:1032B000397827488DF8281006227E1C00F0D8F9AE
:1032C000002838D0234B13BB039B073323F007039D
:1032D00008330393099B4B4409936DE705FB0232C6
:1032E00001200F46A6E700230137059319460A255A
:1032F000384610F8012B303A092A03D9002BC8D0E0
:103300000591C6E705FB012101230746F0E703AB62
:1033100000932246104B04A94046AFF30080B0F161
:10332000FF3F8146D6D1A3895B063FF536AF0998AA
:103330001DB0BDE8F08F03AB00932246064B04A9F5
:10334000404600F081F8EAE7633C0008693C000869
:103350006D3C000800000000BD3000082DE9F0477A
:1033600091461F468A680B69DDF820809342B8BFFA
:103370001346C9F8003091F8432006460C4612B1B6
:103380000133C9F800302368990642BFD9F80030EC
:103390000233C9F80030256815F0060507D104F19D
:1033A000190AE368D9F800209B1AAB4228DC94F88C
:1033B00043302268003318BF012392062DD404F154
:1033C000430239463046C047013020D02368E568C3
:1033D000D9F8002003F00603042B08BFAD1AA36838
:1033E00022690CBF25EAE57500259342C4BF9B1AEC
:1033F000ED184FF000091A344D451AD1002008E0AD
:103400000123524639463046C047013003D14FF0C0
:10341000FF30BDE8F0870135C3E7E1185A1C3020C2
:1034200081F84300224494F8451082F84310023397
:10343000C5E70123224639463046C0470130E6D071
:1034400009F10109D8E700002DE9F04301F1430C2F
:103450000C46097E85B06E291746064698460C9A9A
:1034600000F0B38022D8632936D00AD8002900F0B2
:10347000B980582900F0838004F1420584F8421095
:1034800032E0642901D06929F6D120681368050665
:1034900003F104012AD51B681160002B03DA2D22E9
:1034A0005B4284F843206F480A2239E0732900F018
:1034B0009D8008D86F2920D07029DDD1236843F082
:1034C0002003236003E0752917D07829D4D178230D
:1034D00084F84530644855E01368191D1B68116075
:1034E00004F1420584F8423001238CE01B6811602E
:1034F00010F0400F18BF1BB2CFE713682568181DE6
:103500001060280601D51B6802E06806FBD51B8801
:1035100054486F2914BF0A220822002184F843105E
:103520006568A560002DC0F29580216821F0040136
:103530002160002B3DD1002D40F08E806546082A89
:103540000BD12368DB0708D5236962689A42DEBF86
:10355000302305F8013C05F1FF35ACEB0503236191
:10356000CDF800803B4603AA21463046FFF7F6FE21
:1035700001304DD14FF0FF3005B0BDE8F083394840
:1035800084F84510136821681D1D1B6815600A0624
:103590000BD5CA0744BF41F0200121601BB9226846
:1035A00022F0200222601022B7E74D0648BF9BB2EE
:1035B000EFE76546B3FBF2F102FB1133C35C05F89C
:1035C000013D0B460029F5D1B9E71368256861690B
:1035D000181D106028061B6801D5196002E06A06F4
:1035E000FBD51980002323616546B9E71368191DCF
:1035F00011601D6862680021284600F039F808B1A2
:10360000401B606063682361002384F84330A7E7B0
:1036100023692A4639463046C0470130AAD023687C
:103620009B0713D4E068039B9842B8BF1846A3E7F2
:1036300001234A4639463046C04701309AD0013509
:10364000E368039A9B1AAB42F2DCEBE7002504F136
:103650001909F5E7002BACD1037884F8423004F166
:1036600042056CE7743C0008853C0008000000003F
:1036700001F0FF01102A2BDB10F0070F08D010F823
:10368000013B013A8B422DD010F0070F42B3F6D127
:10369000F0B441EA012141EA014122F007047FF040
:1036A00000070023F0E80256083C85EA010586EA97
:1036B000010685FA47F5A3FA87F586FA47F6A5FAD3
:1036C00087F68EB9EED1F0BC01F0FF0102F00702DF
:1036D00032B110F8013B013A83EA010313B1F8D18A
:1036E0000020704701387047002D06BF354603386B
:1036F000073815F0010F07D1013015F4807F02BFA4
:10370000013015F4C03F0130F0BC0138704700BFF4
:1037100010B5431E0A44914200D110BD11F8014B6F
:1037200003F8014FF7E7884210B501EB020307D811
:10373000421E99420AD011F8014B02F8014FF8E7F6
:103740008342F5D98118D21AD34200D110BD13F8A3
:10375000014D01F8014DF7E738B50546002945D080
:1037600051F8043C0C1F002BB8BFE41800F0D2F84D
:103770001F4A1368104633B9636014602846BDE8D9
:10378000384000F0C8B8A3420CD9216862189342AF
:1037900004BF1A685B68636004BF5218226004604B
:1037A000ECE713465A680AB1A242FAD919685818C8
:1037B000A0420BD120680144581882421960DDD123
:1037C000106852685A6001441960D7E702D90C2387
:1037D0002B60D3E7206821188A4204BF1168526821
:1037E000626004BF091821605C60C7E738BD00BF94
:1037F000AC01002070B5CD1C25F0030508350C2D5B
:1038000038BF0C25002D064601DBA94203D90C2345
:103810003360002070BD00F07DF8214A1468214615
:1038200091B9204C23681BB9304600F063F8206042
:103830002946304600F05EF8431C24D10C23336047
:10384000304600F068F8E4E70B685B1B18D40B2BDC
:103850000FD90B60CD50CC18304600F05CF804F165
:103860000B00231D20F00700C31AD3D05A42E250A8
:10387000D0E78C424B6816BF636013600C46EBE7E1
:103880000C464968CCE7C41C24F00304A04205D0D0
:10389000211A304600F02EF80130CFD02560DBE74A
:1038A000AC010020B0010020F8B5074614460E46D2
:1038B00021B91146BDE8F840FFF79CBF22B9FFF7D8
:1038C0004BFF25462846F8BD00F026F8A0420FD24F
:1038D00021463846FFF78EFF05460028F2D03146D4
:1038E0002246FFF715FF31463846FFF735FFE9E777
:1038F0003546E7E738B5064C002305460846236001
:10390000FCF790FD431C02D1236803B12B6038BD46
:10391000B40100207047704751F8043C181F002B79
:10392000BCBF0B58C0187047537461636B2066723C
:10393000616D653A0A000000205230203D202025AC
:103940003038580A00000000205231203D20202548
:103950003038580A00000000205232203D20202537
:103960003038580A00000000205233203D20202526
:103970003038580A0000000020523132203D202506
:103980003038580A00000000204C52203D202025ED
:103990003038580A00000000205043203D202025E8
:1039A0003038580A0000000020505352203D202596
:1039B0003038580A000000004653522F4641523A10
:1039C0000A0000002043465352203D202025303875
:1039D000580A00002048465352203D202025303808
:1039E000580A00002044465352203D2020253038FC
:1039F000580A00002041465352203D2020253038EF
:103A0000580A0000204D4D464152203D20253038B7
:103A1000580A00002042464152203D2020253038DF
:103A2000580A00004D6973630A000000204C522FB1
:103A30004558435F52455455524E3D202530385825
:103A40000A0000005B486172644661756C745D0A2F
:103A5000000000005B4275734661756C745D0A007E
:103A60005B55736167654661756C745D0A000000A3
:103A7000000000000000000001020304060708091E
:103A8000010602020100070001070202010007000F
:103A90000002020201000700000302020100070009
:103AA000000B020201000700000C020201000700E7
:103AB00000080202000001000009020200000100EB
:103AC000000A020200000100000B020200000100D7
:103AD000010800000A547261646974696F6E616C58
:103AE000204D6F6465204F4E0A0000002A53302A93
:103AF000000000000A547261646974696F6E616C41
:103B0000204D6F6465204F66660A00000A4E4343ED
:103B1000204D6F6465204F4E0A0000000A4E43435B
:103B2000204D6F6465204F66660A00000A4361728B
:103B300020697320726561647920746F206265204A
:103B4000636F6E74726F6C6C65640A000A53656C07
:103B5000656374206F6E65206F6620746865736599
:103B6000206D6F6465733A0A000000000A312D541D
:103B70007261646974696F6E616C204D6F64650A6F
:103B8000000000000A322D4E4343204D6F64650A49
:103B9000000000000A332D414343204D6F64650A45
:103BA000000000000A342D464357204D6F64650A1B
:103BB000000000000A352D45786974204D6F64655A
:103BC0000A0000000A5375636365737366756C6C55
:103BD0007920636F6E6E65637465640A000000008F
:103BE0002A0000000A464357204D6F6465204F4E5F
:103BF0000A0000000A5761726E696E67207468657A
:103C00007265277320616E206F626A656374203865
:103C100030636D20617761790A0000000A414343F7
:103C2000204D6F6465204F4E0A0000000A41434357
:103C3000204D6F6465204F66660A00000108303130
:103C400032333435363738396162636465666768A4
:103C5000696A6B6C6D6E6F7071727374757677785C
:103C6000797A00232D302B2000686C4C0065666744
:103C700045464700303132333435363738394142E2
:103C800043444546003031323334353637383961B4
:063C90006263646566003A
:103C980078563412B4000020000000000024F4001C
:103CA8000000010004000000000000000002030002
:103CB8000400000000000000802500000000000053
:103CC80002000000001001400105FFFF0108FFFF8E
:103CD8000108FFFF4800002000000000000000006D
:103CE80000000000000000000000000000000000CC
:103CF80000000000000000000000000000000000BC
:103D080000000000000000000000000000000000AB
:103D1800000000000000000000000000000000009B
:103D2800000000000000000000000000000000008B
:0C3D3800000000000000000032547698EB
:040000050800019559
:00000001FF
